:020000040800F2
:1000000000040020E10100089103000891030008AA
:100010009103000891030008910300089103000870
:10002000910300089103000891030008613D000856
:100030009103000891030008910300089103000850
:100040009103000891030008910300089103000840
:100050009103000891030008910300089103000830
:1000600091030008910300089103000871590008EA
:10007000B1590008F1590008315A0008715A0008B6
:10008000B15A0008F15A00089103000891030008D2
:1000900091030008910300089103000891030008F0
:1000A00091030008910300089103000891030008E0
:1000B000116E00089103000891030008A16900086F
:1000C000C16900089103000891030008910300082A
:1000D0009103000891030008517200087172000832
:1000E00091030008910300089103000891030008A0
:1000F000910300089103000891030008315B000898
:10010000910300089103000891030008910300087F
:10011000910300089103000891030008910300086F
:10012000715B0008B15B0008F15B0008315C0008FE
:10013000715C000891030008910300089103000816
:10014000910300089103000891030008910300083F
:10015000B15C0008F15C0008315D00089103000803
:10016000910300089103000891030008910300081F
:10017000910300089103000891030008910300080F
:1001800091030008910300089103000891030008FF
:1001900091030008910300089103000891030008EF
:1001A00091030008910300089103000891030008DF
:1001B00091030008910300089103000891030008CF
:1001C00091030008910300089103000891030008BF
:1001D00091030008910300089103000891030008AF
:1001E00072B6264880F3098825484EF60851CEF2AB
:1001F00000010860022080F31488BFF36F8F00F0C5
:100200006FF807F0D5F84FF055301E491E4A91425D
:100210003CBF41F8040BFAE71C49184A91423CBF25
:1002200041F8040BFAE71A491A4A1B4B9A423EBF9F
:1002300051F8040B42F8040BF8E700201749184A5C
:1002400091423CBF41F8040BFAE700F069F800F076
:1002500057F8144C144DAC4203DA54F8041B884789
:10026000F9E70DF045FA114C114DAC4203DA54F8A0
:10027000041B8847F9E700F04BB800000008002095
:1002800000000008000000200004002000040020FE
:1002900060FB000800080020B8080020B808002013
:1002A00050130020E0010008E0010008E001000810
:1002B000E00100082DE9F04FC1F80CD0C3689D465D
:1002C000BDE8F08F002383F311882846A047002063
:1002D00001F066F900F0C4FE00DFFEE70000000058
:1002E000704700BFAFF30080AFF30080AFF3008032
:1002F000704700BFAFF30080AFF30080AFF3008022
:10030000704700BFAFF30080AFF30080AFF3008011
:10031000FEE700BFAFF30080AFF30080AFF30080D3
:1003200084B0164B0393039B1B680293039B5B688B
:10033000019309E0029B1A68019B1A60019B043338
:100340000193029B04330293039B9A68019B9A4298
:10035000F0D805E0019B00221A60019B0433019351
:10036000039BDA68019B9A42F4D8039B10330393F2
:10037000039B034A9342D6D304B0704700DE0008C3
:1003800080DE000800000000000000000000000007
:10039000FEE700BF000000000000000000000000B9
:1003A00084B00190019B03F0070303930A4BDB68C1
:1003B0000293029A4FF6FF0313400293039B1A0223
:1003C000029B134343F0BF6343F400330293024A9A
:1003D000029BD36004B0704700ED00E0AFF30080F3
:1003E00082B0034600918DF807309DF90730002B4D
:1003F0000CDA0C499DF8073003F00F03043B009A18
:10040000D2B21201D2B20B441A7609E006499DF924
:100410000730009AD2B21201D2B20B4483F8002303
:1004200002B0704700ED00E000E100E0AFF30080B3
:1004300008B50320FFF7B4FF0B4A0B4BDB6843F012
:100440008073D360094A094B1B6843F001031360B2
:100450006FF004000121FFF7C3FF6FF001000221DC
:10046000FFF7BEFF08BD00BFF0ED00E0001000E0A8
:1004700082B0EFF311830093009B0193019B184618
:1004800002B07047AFF30080AFF30080AFF300809D
:1004900082B00190019B002B0CBF01230023DBB233
:1004A000184602B0704700BFAFF30080AFF3008082
:1004B00082B0EFF305830193019BC3F30803002B84
:1004C00014BF01230023DBB2184602B0704700BFFF
:1004D00082B020230193019B83F3118802B07047FF
:1004E00082B000230193019B83F3118802B070470F
:1004F00008B5FFF7EDFF08BDAFF30080AFF3008054
:1005000008B5FFF7EDFF08BDAFF30080AFF3008043
:1005100072B67047AFF30080AFF30080AFF3008096
:1005200082B000230193019B83F3118862B602B06D
:10053000704700BFAFF30080AFF30080AFF30080DF
:10054000704700BFAFF30080AFF30080AFF30080CF
:10055000014B5B6818467047001000E0AFF3008065
:100560004FF080435B6A1846704700BFAFF30080CE
:1005700008B503F0A5FC08BDAFF30080AFF3008021
:1005800000B583B00190019803F0A2FC03B05DF8C0
:1005900004FB00BFAFF30080AFF30080AFF3008037
:1005A00008B5FFF7DDFF0346184608BDAFF300802E
:1005B00008B5FFF7B5FF08BDAFF30080AFF30080CB
:1005C00008B5FFF785FF08BDAFF30080AFF30080EB
:1005D00008B5FFF785FF08BDAFF30080AFF30080DB
:1005E00008B5FFF785FF08BDAFF30080AFF30080CB
:1005F00008B5FFF785FF08BDAFF30080AFF30080BB
:1006000008B5FFF7CDFF0346184608BDAFF30080DD
:1006100000B585B02A4BDB690393FFF7F1FF029029
:100620002AE0274B9A6A039B9B681344244A9362EF
:10063000039B1B68234A5A60039B1B68204AD361B3
:10064000039BDB680093039B0022DA601C4BDB6991
:100650001C4A934201D1FFF78BFFFFF7C9FF039BB1
:100660001A69009B10469847FFF7BAFF144BDB69E5
:100670000393FFF7C5FF0290039B9A68104B9B6A98
:100680000299CB1A9A42CCD90D4BDB690D4A9342A1
:1006900000D112E00A4B9A6A039B9B681A44029BA2
:1006A000D31A0193019B012B01D802230193029AD3
:1006B000019B13441846FFF763FF05B05DF804FB88
:1006C000F80A0020140B0020AFF30080AFF3008085
:1006D00000B583B00190FFF733FFFCE7AFF3008074
:1006E00008B500F02DFB00F07BF901F071F902F084
:1006F00077FF02F0E5FF0C480C49802200F000FE75
:1007000002460B4B9A610A4B9B690022DA61084B47
:100710009B69012283F82020FFF78AFEFFF748FF3C
:10072000044800F07DFE08BD280B0020A8DE00086C
:10073000F80A002088DE0008AFF30080AFF30080E5
:1007400000B583B00190FFF7E3FE024A019BD3623C
:10075000FEE700BFF80A0020AFF30080AFF300808F
:1007600086B00190019B03F00103002B22D00023EF
:1007700005933A4B1B68049305E0059B01330593F1
:10078000049B1B680493049B344A9342F5D1334B7A
:100790005B68049305E0059B013B0593049B5B6844
:1007A0000493049B2D4A9342F5D1059B002B01D065
:1007B000012350E0019B03F00203002B22D0002311
:1007C0000593264BDB69039305E0059B01330593F5
:1007D000039B1B680393039B214A9342F5D11F4B54
:1007E0001B6A039305E0059B013B0593039B5B6834
:1007F0000393039B1A4A9342F5D1059B002B01D02A
:10080000012328E0019B03F00403002B22D00023E6
:100810000593124B1B69029305E0059B0133059379
:10082000029B1B690293029B0C4A9342F5D10B4B2E
:100830005B69029305E0059B013B0593029B5B69A5
:100840000293029B054A9342F5D1059B002B01D0F0
:10085000012300E00023184606B07047F80A002084
:10086000140B0020AFF30080AFF30080AFF30080E3
:1008700008B5FFF7CDFE08BDAFF30080AFF30080F1
:1008800000B583B0FFF7F4FD01900198FFF700FE7B
:100890000346002B09D0FFF70BFE0346002B02D0C6
:1008A000FFF79EFE01E0FFF78BFE019B184603B0A9
:1008B0005DF804FBAFF30080AFF30080AFF300807E
:1008C00000B583B001900198FFF7E2FD0346002BCD
:1008D0000BD0FFF7EDFD0346002B02D0FFF788FE9B
:1008E00003E000F055FBFFF773FE03B05DF804FB77
:1008F00084B0039002910192039A029BD21A01994B
:10090000029BCB1A9A4234BF01230023DBB2184664
:1009100004B07047AFF30080AFF30080AFF3008006
:1009200000B585B00190FFF713FE0390039A019B79
:100930001344029300BFFFF70BFE034618460399CA
:10094000029AFFF7D5FF0346002BF4D105B05DF8FE
:1009500004FB00BF000000000000000000000000D9
:100960004FF080435B6A1846704700BFAFF30080CA
:1009700000B583B00190019803F092FA03B05DF8DE
:1009800004FB00BFAFF30080AFF30080AFF3008043
:1009900008B503F095FA08BDAFF30080AFF300800F
:1009A00000B583B00190019803F092FA03B05DF8AE
:1009B00004FB00BFAFF30080AFF30080AFF3008013
:1009C00008B5FFF7CDFF0346184608BDAFF300801A
:1009D00008B5FFF7F5FF0346184608BDAFF30080E2
:1009E000064B074ADA61054B054A1A62034B4FF082
:1009F000FF325A62014B00229A627047F80A0020C7
:100A0000140B0020AFF30080AFF30080AFF3008041
:100A100000B589B00390029101920093039B009A64
:100A20001A61039B019ADA60FFF7D2FF0590029BDF
:100A3000012B01D802230293384BDB69384A9342D9
:100A400019D1364A059B9362344A039BD361334ADA
:100A5000039B1362039B324A1A60039B304A5A601D
:100A6000039B029A9A602D4B9A6A029B1344184684
:100A7000FFF77EFF4FE0294BDB690793274B9B6A0B
:100A8000059AD21A029B13440693244B9B6A059A3B
:100A9000D21A069B9A4208D9079B9B68069AD31ADA
:100AA0000693079B1B6807930BE0079B9A68069BBE
:100AB0009A4206D9194B9A6A069B13441846FFF7C7
:100AC0006FFF07E0079B9B68069AD31A0693079B64
:100AD0001B680793079B9A68069B9A42F2D3039B75
:100AE000079A1A60039B1B685A68039B5A60039B12
:100AF0005B68039A1A60079B039A5A60039B069AE5
:100B00009A60079B9A68069BD21A079B9A60034BD0
:100B10004FF0FF325A6209B05DF804FBF80A00207A
:100B2000140B0020AFF30080AFF30080AFF3008020
:100B300000B585B00190314BDA69019B9A421CD017
:100B4000019B5B68019A12681A60019B1B68019AFD
:100B500052685A60019B0022DA60019B1B68284A98
:100B6000934209D0019B1B68019A12689168019A0F
:100B700092680A449A603EE03DE0019B1B681F4A70
:100B8000D3611E4BDB691E4A5A60019B0022DA606A
:100B90001A4BDB691A4A934202D1FFF7F9FE2AE0A9
:100BA000164BDB69154AD2699168019A92680A442A
:100BB0009A60FFF70DFF0246104B9B6AD31A02930F
:100BC0000E4BDB699A68029B9A4200D813E00B4BEC
:100BD000DB699A68029BD31A0393039B012B01D80C
:100BE00002230393054B9A6A029B1A44039B134406
:100BF0001846FFF7D5FE05B05DF804FBF80A0020A3
:100C0000140B0020000000000000000000000000A5
:100C100082B020230193019B83F3118802B07047B7
:100C200082B000230193019B83F3118802B07047C7
:100C300008B5FFF7EDFF08BDAFF30080AFF300800C
:100C400008B5FFF7EDFF08BDAFF30080AFF30080FC
:100C500082B00190019B019A1A60019B019A5A602F
:100C600002B07047AFF30080AFF30080AFF30080B5
:100C700084B00190019B1B680393039B1A68019B3E
:100C80001A60019B1B68019A5A60039B184604B0C6
:100C9000704700BFAFF30080AFF30080AFF3008078
:100CA00082B00190019B5B68019A12681A60019BF7
:100CB0001B68019A52685A60019B184602B070473F
:100CC000064B1B689A68054B9B699B689A428CBFD0
:100CD00001230023DBB21846704700BFF80A00204A
:100CE00008B5FFF7A5FF08BDAFF30080AFF30080A4
:100CF00008B5FFF7A5FF08BDAFF30080AFF3008094
:100D000082B00190019BDB68002B14BF01230023FC
:100D1000DBB2184602B07047AFF30080AFF300803B
:100D200082B00190019B9B685A1C019B9A6002B0A3
:100D3000704700BFAFF30080AFF30080AFF30080D7
:100D400008B50648FFF784FF044B00229A60034B66
:100D5000024A1A61014B014A5A6108BDF80A002093
:100D600084B00190019B002283F820200E4B039356
:100D7000039B1B680393039B9A68019B9B689A42A1
:100D8000F6D2019B039A1A60039B5A68019B5A6032
:100D9000019B5B68019A1A60039B019A5A60019B50
:100DA000184604B0704700BFF80A0020AFF3008077
:100DB00084B00190019B002283F820200E4B039306
:100DC000039B1B680393039B9A68019B9B689A4251
:100DD000F6D8019B039A1A60039B5A68019B5A60DC
:100DE000019B5B68019A1A60039B019A5A60019B00
:100DF000184604B0704700BFF80A0020AFF3008027
:100E000000B585B003468DF807300E4B9B69039300
:100E1000039B9DF8072083F820200A48FFF728FF4E
:100E20000246084B9A61074B9B69012283F82020F8
:100E3000044B9B6918460399FFF73CFA05B05DF82F
:100E400004FB00BFF80A0020AFF30080AFF300807E
:100E500000B585B00190019B0393FFF741FF039B11
:100E600093F82030072B24D801A252F823F000BFBA
:100E7000910E0008B30E0008B30E0008970E00088C
:100E8000AB0E0008A10E0008B30E0008AB0E000860
:100E9000FFF72EFF17E0039B5B6A00221A6009E050
:100EA000039B5B6A1846FFF73BFF0398FFF7F8FECA
:100EB00000E000BF039B4FF0FF325A620398FFF738
:100EC0004FFFFFF715FF05B05DF804FBAFF300809F
:100ED00000B589B0034600918DF80730009BB3F14F
:100EE000FF3F19D0124B9B6903AA10460099114A83
:100EF000FFF78EFD9DF807301846FFF781FF03AB23
:100F00001846FFF7FDFE0346002B04D003AB18463E
:100F1000FFF70EFE05E004E09DF807301846FFF7E6
:100F20006FFF034B9B695B6A184609B05DF804FBD1
:100F3000F80A0020510E0008AFF30080AFF30080E4
:100F400000B585B001900091104B9B690393019B04
:100F5000009A5A62019B9A68039B9B689A4203D845
:100F60000198FFF7FDFE0EE00398FFF7F9FE0390EE
:100F7000064A019B9361019B012283F8202001987E
:100F80000399FFF797F905B05DF804FBF80A002014
:100F900008B5FFF795FE0346002B01D000F040F89E
:100FA00008BD00BFAFF30080AFF30080AFF3008057
:100FB00082B0094B1B689B680193074B9B699B6838
:100FC0000093019A009B9A428CBF01230023DBB25D
:100FD000184602B0704700BFF80A0020AFF3008047
:100FE00000B583B00D4B9B6901930C48FFF740FEA1
:100FF00002460A4B9A61094B9B69012283F8202023
:101000000198FFF7ADFE0190044B9B6918460199CA
:10101000FFF750F903B05DF804FB00BFF80A0020A9
:1010200000B583B00D4B9B6901930C48FFF720FE80
:1010300002460A4B9A61094B9B69012283F82020E2
:101040000198FFF7B5FE0190044B9B691846019982
:10105000FFF730F903B05DF804FB00BFF80A002089
:1010600000B583B00D4B9B6901930C48FFF700FE60
:1010700002460A4B9A61094B9B69012283F82020A2
:101080000198FFF795FE0190044B9B691846019962
:10109000FFF710F903B05DF804FB00BFF80A002069
:1010A00082B020230193019B83F3118802B0704723
:1010B00082B000230193019B83F3118802B0704733
:1010C0004FF080435B6A1846704700BFAFF3008063
:1010D00008B5FFF7F5FF0346184608BDAFF30080DB
:1010E00082B00190019B019A1A6002B0704700BF64
:1010F00082B00190019B1A68019B9A4214BF0123A0
:101100000023DBB2184602B0704700BFAFF3008087
:1011100082B00190019B019A1A60019B019A5A606A
:1011200002B07047AFF30080AFF30080AFF30080F0
:1011300082B00190019B1A68019B9A4214BF01235F
:101140000023DBB2184602B0704700BFAFF3008047
:1011500082B001900091009B1A68019B1A60009B6D
:10116000019A1A6002B07047AFF30080AFF30080BD
:1011700084B00190019B1B680393039B1A68019B39
:101180001A60039B184604B0704700BFAFF300809D
:1011900082B001900091019B009A1A60009B5A68EE
:1011A000019B5A60019B5B68019A1A60009B019A3F
:1011B0005A6002B0704700BFAFF30080AFF3008009
:1011C00084B00190019B1B680393039B1A68019BE9
:1011D0001A60019B1B68019A5A60039B184604B071
:1011E000704700BFAFF30080AFF30080AFF3008023
:1011F000064B1B689A68054B9B699B689A422CBFFB
:1012000001230023DBB21846704700BFF80A002014
:1012100008B5FFF7EDFF0346002B01D0FFF7E0FE16
:1012200008BD00BFAFF30080AFF30080AFF30080D4
:1012300008B5FFF735FF08BDAFF30080AFF30080BE
:1012400008B5FFF735FF08BDAFF30080AFF30080AE
:1012500008B5FFF73DFF0346184608BDAFF3008011
:1012600084B0039002910192039A029BD21A0199D1
:10127000029BCB1A9A4234BF01230023DBB21846EB
:1012800004B07047AFF30080AFF30080AFF300808D
:10129000014B9B6918467047F80A0020AFF30080A5
:1012A00082B00190019BDB69184602B0704700BF15
:1012B00000B583B0019008200199FFF709FE03B043
:1012C0005DF804FBAFF30080AFF30080AFF3008064
:1012D00000B585B0019000910198FFF771FF039070
:1012E000039B009A5A620398FFF73AFD05B05DF838
:1012F00004FB00BFAFF30080AFF30080AFF30080CA
:1013000000B585B0039002910192039B019A9A6007
:10131000039B022283F82020039B002283F82120D4
:10132000039B019ADA63039B00229A63039B0022CA
:101330005A63039B012283F82220039B029A9A613D
:10134000039B0E4A1A610D4B5A69039B5A61039B1A
:101350005B69039A1A61094A039B5361039B283313
:101360001846FFF7BDFE039B2C331846FFF7D0FE4F
:10137000039B184605B05DF804FB00BFF80A002087
:1013800000B585B00190019B9B68483B0393019B8E
:101390005A68039BDA61039BA3F12402039BDA6082
:1013A000039BDB68019A12691A60039BDB68019A50
:1013B00052695A60039BDB68074A1A62019B1A68EC
:1013C000019BDB68039811461A46FFF799FF034615
:1013D000184605B05DF804FBC5020008AFF30080B5
:1013E00000B585B00190FFF723FF0198FFF7C8FF14
:1013F0000390FFF725FF039B184605B05DF804FB3B
:1014000000B583B001900198FFF7BAFF0346184674
:10141000FFF7A6FC0346184603B05DF804FB00BFC7
:1014200000B585B00190FFF703FF0198FFF7A8FF13
:10143000039003980021FFF783FDFFF701FF039B53
:10144000184605B05DF804FBAFF30080AFF30080F1
:1014500000B587B00390029101920093FFF7E8FE78
:10146000029B483B039A13440593059B039ADA6158
:10147000059BA3F12402059BDA60059BDB68009ABB
:101480001A60059BDB68089A5A60059BDB68094A6D
:101490001A6205980849019AFFF732FF05900598EE
:1014A0000021FFF74DFDFFF7CBFE059B184607B067
:1014B0005DF804FBC5020008A0DE0008AFF3008061
:1014C00000B583B00190FFF7B3FE01980021FFF74C
:1014D00037FDFFF7B5FE019B184603B05DF804FB2E
:1014E00000B583B00190FFF7A3FE019B93F8223073
:1014F0000133DAB2019B83F82220FFF7A1FE019BA2
:10150000184603B05DF804FBAFF30080AFF3008032
:1015100010B582B00190FFF78BFE019B93F822304B
:10152000013BDAB2019B83F82220019B93F8223021
:10153000002B2ED1019B93F820300F2B29D1019B3A
:101540005B69019A12691A61019B1B69019A5269D0
:101550005A61FFF775FE019B93F8213003F00303F6
:10156000012B02D0022B08D012E00198FFF798FE61
:101570000346184602F0C4F90AE0019B1C6C01986E
:10158000FFF78EFE03462046194602F021FB00BFFE
:1015900001E0FFF755FE02B010BD00BFAFF30080C1
:1015A00000B583B00190FFF743FE019800F008F802
:1015B00003B05DF804FB00BFAFF30080AFF3008021
:1015C00000B585B001901A4B9B690393039B019A68
:1015D0005A6208E0039B28331846FFF7C9FD03460B
:1015E0001846FFF7BDFB039B28331846FFF780FD25
:1015F0000346002BEED1039B93F82230002B10D131
:10160000039B93F8213003F00303002B09D1039BC4
:101610005B69039A12691A61039B1B69039A5269F9
:101620005A610F20FFF7ECFB05B05DF804FB00BF2B
:10163000F80A0020AFF30080AFF30080AFF3008022
:1016400000B585B00190FFF7F3FD019B93F82030C2
:101650000F2B0AD00B4B9A69019B28331046194671
:10166000FFF776FD0920FFF7CBFB019B5B6A039335
:10167000FFF7E6FD0198FFF74BFF039B184605B007
:101680005DF804FBF80A0020AFF30080AFF30080A0
:1016900000B585B00190FFF7CBFD114B9B69DB6B6B
:1016A00003930F4B9B699A680D4B9B69DB6B9A42C6
:1016B00005D00B4B9B699A68019B9A4203D2084B59
:1016C0009B69019A9A60064B9B69019ADA63FFF75E
:1016D0005FFCFFF7B5FD039B184605B05DF804FB02
:1016E000F80A0020AFF30080AFF30080AFF3008072
:1016F00000B583B00190FFF79BFD019B93F821306B
:1017000043F00403DAB2019B83F82120FFF798FD30
:1017100003B05DF804FB00BFAFF30080AFF30080BF
:1017200000B583B00190FFF783FD0198FFF7C0FD7E
:10173000FFF786FD03B05DF804FB00BFAFF3008048
:1017400000B583B00190FFF773FDFFF781FD0246FE
:10175000019B9B1A0193019B002B02D00198FFF77C
:10176000A7FDFFF76DFD03B05DF804FBAFF300804C
:1017700000B585B001900091FFF75AFDFFF768FDB5
:10178000039003980199009AFFF76AFD0346002B26
:1017900005D0009A039BD31A1846FFF789FDFFF77F
:1017A0004FFD009B184605B05DF804FBAFF30080C9
:1017B00008B5FFF73DFDFFF72BFDFFF741FD08BD25
:1017C00000B585B00190FFF763FD0390019B039A7C
:1017D0001A60039B019A5A620320FFF711FBFFF77F
:1017E00057FD03465B6A184605B05DF804FB00BF71
:1017F00000B585B001900091FFF74AFD0390009B72
:10180000002B02D14FF0FF330AE0019B039A1A60CC
:10181000039B019A5A6203200099FFF759FB034684
:10182000184605B05DF804FBAFF30080AFF300800D
:1018300000B585B001900091019B1B68002B0BD077
:10184000019B1B680393019B00221A60039B009A73
:101850005A620398FFF784FA05B05DF804FB00BFF5
:1018600000B585B001900091019B1B68002B09D049
:10187000019B1B680393019B00221A600398009947
:10188000FFF75EFB05B05DF804FB00BFAFF300801F
:1018900000B583B001900091FFF7CAFC0198009950
:1018A000FFF7DEFFFFF7CCFC03B05DF804FB00BFE1
:1018B00000B583B001900091009B002B02D14FF046
:1018C000FF330AE0074B9B6918460199FFF760FC5C
:1018D00004200099FFF7FCFA0346184603B05DF8B0
:1018E00004FB00BFF80A0020AFF30080AFF30080D4
:1018F00000B583B0019000910198FFF719FC0346F1
:10190000002B03D001980099FFF7E2FC03B05DF8CB
:1019100004FB00BFAFF30080AFF30080AFF30080A3
:1019200000B583B00190009103E001980099FFF7A2
:10193000CFFC0198FFF7FCFB0346002BF5D103B069
:101940005DF804FB00000000000000000000000043
:10195000014B5B6818467047001000E0AFF3008051
:1019600084B0039002910192039BDB685A1C039B95
:10197000DA60039B9B68029AD21A019BD21A039BDE
:101980009A60039BD3E90401039B9B681A464FF0BE
:101990000003121843EB01030399C1E90423039BDD
:1019A0009A68039B5B689A4203D9039B9A68039BDE
:1019B0005A60039B9A68039B1B689A4203D2039B5D
:1019C0009A68039B1A6004B0704700BFAFF30080B1
:1019D00000B587B00A4B00225A676B46184600F0E4
:1019E00017F86B46184600F02BF86B46184600F0C7
:1019F00037F8029B024A536707B05DF804FB00BF4B
:101A0000F80A0020AFF30080AFF30080AFF300804E
:101A100082B00190019B4FF0FF321A60019B0022BF
:101A20005A60019B00229A60019B0022DA600199B2
:101A30004FF000024FF00003C1E9042302B07047E9
:101A400000B583B00190FFF783FF0246019B9A60C7
:101A500003B05DF804FB00BFAFF30080AFF300807C
:101A600000B583B00190FFF773FF0246044B5B6F34
:101A7000019811461A46FFF773FF03B05DF804FBA7
:101A8000F80A0020AFF30080AFF30080AFF30080CE
:101A900000B583B001900091FFF75AFF0246009B0A
:101AA0009A60009B9B68019819460022FFF758FF37
:101AB00003B05DF804FB00BF000000000000000060
:101AC00082B020230193019B83F3118802B07047F9
:101AD00082B000230193019B83F3118802B0704709
:101AE00008B5FFF7EDFF08BDAFF30080AFF300804E
:101AF00008B5FFF7EDFF08BDAFF30080AFF300803E
:101B000082B00190019BDB69184602B0704700BFAC
:101B100082B00190019B9B69184602B0704700BFDC
:101B200000B583B0FFF7DCFF084B1B690193019BF5
:101B300093F822300133DAB2019B83F82220FFF7B9
:101B4000D7FF019B184603B05DF804FBF80A00209C
:101B500000B585B00190FFF7C3FF019B1B6903939C
:101B6000039B0C4A934202D10023039307E0039B9B
:101B700093F822300133DAB2039B83F82220FFF777
:101B8000B7FF0198FFF7C4FC039B184605B05DF84A
:101B900004FB00BFF80A0020AFF30080AFF3008021
:101BA00000B585B00190FFF7BBFF03900398FFF7E6
:101BB000AFFF0346184601990BF0B6FF0346002B12
:101BC00001D1039B07E00398FFF7C2FF0390039B3B
:101BD000002BEBD10023184605B05DF804FB00BFD5
:101BE00000B585B00190FFF79BFF0390039A019B1E
:101BF0009A4201D1039B07E00398FFF7A9FF0390E6
:101C0000039B002BF2D10023184605B05DF804FBBE
:101C100000B585B00190FFF783FF03900398FFF7AD
:101C20006FFF0246019B9A4201D1039B07E0039894
:101C3000FFF78EFF0390039B002BEFD10023184684
:101C400005B05DF804FB00BF0000000000000000CC
:101C500082B020230193019B83F3118802B0704767
:101C600082B000230193019B83F3118802B0704777
:101C700082B00190019B019A1A60019B019A5A60FF
:101C800002B07047AFF30080AFF30080AFF3008085
:101C900082B001900091019B009A1A60009B5A68E3
:101CA000019B5A60019B5B68019A1A60009B019A34
:101CB0005A6002B0704700BFAFF30080AFF30080FE
:101CC00084B00190019B1B680393039B1A68019BDE
:101CD0001A60019B1B68019A5A60039B184604B066
:101CE000704700BFAFF30080AFF30080AFF3008018
:101CF00084B00190019B5B680393039B5A68019B2E
:101D00005A60019B5B68019A1A60039B184604B0F5
:101D1000704700BFAFF30080AFF30080AFF30080E7
:101D200008B5FFF795FF08BDAFF30080AFF3008063
:101D300008B5FFF795FF08BDAFF30080AFF3008053
:101D400000B583B001900091019B1846FFF790FF0A
:101D5000019B009A9A6003B05DF804FBAFF300802A
:101D600000B583B001900091FFF7DAFF0198009968
:101D700000F00EF8FFF70CF9FFF7DAFF03B05DF89B
:101D800004FB00BFAFF30080AFF30080AFF300802F
:101D900000B585B001900091019B9B680393019B66
:101DA000009A9A600BE0019B1846FFF7A1FF0346DB
:101DB0001846FEF7D5FF02466FF001035362039BFE
:101DC00001330393039B002BEDDD05B05DF804FBAD
:101DD00000B585B00190FFF7A3FF019800F008F867
:101DE0000390FFF7A5FF039B184605B05DF804FBC1
:101DF00000B583B00190019B9B685A1E019B9A60BD
:101E0000019B9B68002B11DA0B4B9B69019A5A626C
:101E1000094B9A69019B10461946FFF739FF0520C7
:101E2000FEF7EEFF044B9B695B6A00E00023184657
:101E300003B05DF804FB00BFF80A0020AFF3008098
:101E400000B585B001900091FFF76AFF01980099F5
:101E500000F00EF80390FFF76BFF039B184605B0E8
:101E60005DF804FBAFF30080AFF30080AFF30080B8
:101E700000B583B001900091019B9B685A1E019BA5
:101E80009A60019B9B68002B1BDA009B002B07D1FB
:101E9000019B9B685A1C019B9A604FF0FF3311E035
:101EA0000A4B9B69019A5A62084B9A69019B10463A
:101EB0001946FFF7EDFE05200099FFF709F80346E4
:101EC00000E00023184603B05DF804FBF80A002088
:101ED00000B583B00190FFF723FF019B9B685A1C5C
:101EE000019B9A60019B9B68002B08DC019B1846B4
:101EF000FFF7E6FE034618460021FFF721F8FFF73B
:101F000017FF03B05DF804FBAFF30080AFF3008070
:101F100000B585B00190019B9B685A1C019B9A609B
:101F2000019B9B68002B0ADC019B1846FFF7C8FE4B
:101F30000390039B00225A620398FEF711FF05B03D
:101F40005DF804FBAFF30080AFF30080AFF30080D7
:101F500000B583B00190009116E0019B9B685A1C6C
:101F6000019B9A60019B9B68002B0ADC019B184631
:101F7000FFF7A6FE03461846FEF7F2FE02460023D0
:101F80005362009B013B0093009B002BE5DC03B0F8
:101F90005DF804FBAFF30080AFF30080AFF3008087
:101FA00000B585B001900091FFF7BAFE019B9B68D8
:101FB0005A1C019B9A60019B9B68002B0ADC019BC9
:101FC0001846FFF77DFE03461846FEF7C9FE024697
:101FD00000235362009B9B685A1E009B9A60009BE3
:101FE0009B68002B11DA0E4B9B690293009B0298B1
:101FF0001946FFF74DFE029B009A5A620520FEF734
:10200000FFFE029B5B6A039303E0FEF7C1FF002320
:102010000393FFF78DFE039B184605B05DF804FBA4
:10202000F80A00200000000000000000000000008E
:1020300082B020230193019B83F3118802B0704783
:1020400082B000230193019B83F3118802B0704793
:1020500082B00190019B019A1A60019B019A5A601B
:1020600002B07047AFF30080AFF30080AFF30080A1
:1020700082B00190019B1A68019B9A4214BF012310
:102080000023DBB2184602B0704700BFAFF30080F8
:1020900084B001900091009B0393039B1B68039302
:1020A000039A009B9A4205D0039B9A68019B9B6808
:1020B0009A42F2D2019B039A1A60039B5A68019BD1
:1020C0005A60019B5B68019A1A60039B019A5A60EF
:1020D00004B07047AFF30080AFF30080AFF300802F
:1020E00084B00190019B1B680393039B1A68019BBA
:1020F0001A60019B1B68019A5A60039B184604B042
:10210000704700BFAFF30080AFF30080AFF30080F3
:1021100082B00190019B5B68019A12681A60019B72
:102120001B68019A52685A60019B184602B07047BA
:1021300008B5FFF77DFF08BDAFF30080AFF3008067
:1021400008B5FFF77DFF08BDAFF30080AFF3008057
:1021500000B583B00190019B1846FFF789FF034645
:10216000184603B05DF804FBAFF30080AFF30080C6
:1021700000B583B00190019B1846FFF769FF019BF2
:1021800000229A6003B05DF804FB00BFAFF300804B
:1021900000B583B00190FFF7CBFF019800F008F87D
:1021A000FFF7CEFF03B05DF804FB00BFAFF3008084
:1021B00000B585B001902D4B9B690293019B9B68F4
:1021C000002B46D0019B9B68039330E0029B9A68EA
:1021D000039B9A60039B93F82030062B04D0072BB7
:1021E00011D0002B1AD021E00398FFF791FF02468F
:1021F000039B5B6A10461946FFF74AFF039B5B6A25
:102200009B68039313E00398FFF782FF0246039B4A
:102210005B6A10461946FFF73BFF07E00398FFF79C
:1022200077FF03461846FEF79BFD00BF05E0039BC2
:102230009A68029B9B689A42C8D3019B02981946F0
:10224000FFF726FF029B019A5A620620FEF7D8FD8F
:1022500009E0019B029A9A60029B9A6B019BDA60EB
:10226000029B019A9A6305B05DF804FBF80A00200E
:1022700000B585B00190FFF75BFF019800F010F802
:1022800003468DF80F30FFF75BFF9DF80F301846BF
:1022900005B05DF804FB00BFAFF30080AFF3008032
:1022A00082B00190019B9B68002B01D000230DE0C0
:1022B000084B9A69019B9A60064B9B699A6B019B3C
:1022C000DA60044B9B69019A9A630123184602B0B5
:1022D000704700BFF80A0020AFF30080AFF3008022
:1022E00000B587B00190264B9B690393FFF720FF51
:1022F000019BDA68039B9A630198FFF729FF034665
:10230000002B34D0039BDB6B0493039B9B6B0593E7
:1023100012E00598FFF71CFF0346002B09D0059B30
:102320001B689A68049B9A4203D9059B1B689B68AB
:102330000493059BDB680593059B002BE9D1039B68
:10234000049A9A60019B1846FFF7CAFE0290019B0F
:10235000029A9A60029B9A6B019BDA60029B019A37
:102360009A630298FEF7FCFCFEF712FE02E0019B66
:1023700000229A60FFF7E4FE07B05DF804FB00BF9F
:10238000F80A0020AFF30080AFF30080AFF30080C5
:1023900000B587B00190234B9B690393019BDA68DA
:1023A000039B9A630198FFF7D3FE0346002B32D0BC
:1023B000039BDB6B0493039B9B6B059312E00598D7
:1023C000FFF7C6FE0346002B09D0059B1B689A68E1
:1023D000049B9A4203D9059B1B689B680493059B49
:1023E000DB680593059B002BE9D1039B049A9A6057
:1023F000019B1846FFF774FE0290019B029A9A60B7
:10240000029B9A6B019BDA60029B019A9A63029885
:10241000FEF7A6FC02E0019B00229A6007B05DF87F
:1024200004FB00BFF80A0020AFF30080AFF3008088
:1024300000B585B0184B9B69039322E0039B9B6B0F
:102440000293029BDA68039B9A630298FFF780FE6F
:102450000346002B12D0029B1846FFF741FE019065
:10246000029B019A9A60019B9A6B029BDA60019B26
:10247000029A9A630198FEF773FC02E0029B002225
:102480009A60039B9B6B002BD8D1039BDA6B039B59
:102490009A6005B05DF804FBF80A0020AFF30080F5
:1024A00000B585B01D4B9B690393FFF741FE039B6D
:1024B0009B6B002B2CD0039B9B6B0293029BDA68D7
:1024C000039B9A630298FFF743FE0346002B12D04A
:1024D000029B1846FFF704FE0190029B019A9A6046
:1024E000019B9A6B029BDA60019B029A9A630198A6
:1024F000FEF736FC02E0029B00229A60039B9B6B76
:10250000002BD8D1039BDA6B039B9A60FEF740FD4A
:10251000FFF716FE05B05DF804FB00BFF80A0020C7
:1025200082B020230193019B83F3118802B070478E
:1025300082B000230193019B83F3118802B070479E
:1025400082B00190019B019A1A60019B019A5A6026
:1025500002B07047AFF30080AFF30080AFF30080AC
:1025600082B00190019B1A68019B9A4214BF01231B
:102570000023DBB2184602B0704700BFAFF3008003
:1025800084B001900091009B0393039B1B6803930D
:10259000039A009B9A4205D0039B9A68019B9B6813
:1025A0009A42F2D2019B039A1A60039B5A68019BDC
:1025B0005A60019B5B68019A1A60039B019A5A60FA
:1025C00004B07047AFF30080AFF30080AFF300803A
:1025D00084B00190019B1B680393039B1A68019BC5
:1025E0001A60019B1B68019A5A60039B184604B04D
:1025F000704700BFAFF30080AFF30080AFF30080FF
:1026000008B5FFF78DFF08BDAFF30080AFF3008082
:1026100008B5FFF78DFF08BDAFF30080AFF3008072
:10262000014B9B6918467047F80A0020AFF3008001
:1026300008B5FFF7F5FF03469B6B184608BD00BFC2
:1026400000B583B00190019B1846FFF779FF03B0F6
:102650005DF804FBAFF30080AFF30080AFF30080C0
:1026600000B583B00190FFF7CBFF019B1846FFF741
:1026700077FF0346002B08D0019B1846FFF7A8FF01
:10268000034618460021FEF75BFCFFF7C1FF03B0CD
:102690005DF804FBAFF30080AFF30080AFF3008080
:1026A00000B585B00190019B1846FFF759FF03461E
:1026B000002B0AD0019B1846FFF78AFF0390039B6B
:1026C00000225A620398FEF74BFB05B05DF804FB4D
:1026D00000B583B00190FFF793FF019800F008F870
:1026E000FEF756FCFFF794FF03B05DF804FB00BF54
:1026F00000B583B001900BE0019B1846FFF768FF1F
:1027000003461846FEF72CFB02466FF001035362A6
:10271000019B1846FFF724FF0346002BECD103B0C2
:102720005DF804FBAFF30080AFF30080AFF30080EF
:1027300000B585B00190FFF763FF019800F008F83D
:102740000390FFF765FF039B184605B05DF804FB97
:1027500000B587B001900F4B9B690593FFF768FFA9
:1027600004900498FFF714FE059B019A5A62019B9E
:1027700005981946FFF704FF0720FEF741FB059B6C
:102780005B6A03930498FFF713FD039B184607B099
:102790005DF804FBF80A0020AFF30080AFF300807F
:1027A00000B585B001900091FFF72AFF01980099CC
:1027B00000F00EF80390FFF72BFF039B184605B0BF
:1027C0005DF804FBAFF30080AFF30080AFF300804F
:1027D00000B585B001900091FFF72AFF03900398A0
:1027E000FFF7D6FD0D4B9B69019A5A620B4B9A6914
:1027F000019B10461946FFF7C3FE07200099FEF71C
:1028000067FB0290029BB3F1FF3F02D00398FFF7F2
:10281000CFFC029B184605B05DF804FBF80A0020C7
:1028200082B020230193019B83F3118802B070478B
:1028300082B000230193019B83F3118802B070479B
:1028400008B5FFF7EDFF08BDAFF30080AFF30080E0
:1028500008B5FFF7EDFF08BDAFF30080AFF30080D0
:1028600000B585B00390029101920093FFF7E8FF55
:10287000039B1A68029B1A60039B029A1A60094B19
:102880009A69029B5A60029B019A9A60029B0022FD
:10289000DA60029B009A1A61FFF7DAFF05B05DF873
:1028A00004FB00BFF80A0020AFF30080AFF3008004
:1028B00000B585B001900091019B0393FFF7C0FF25
:1028C0000CE0039B1A68009B9A4204D1009B1A6893
:1028D000039B1A6007E0039B1B680393039B1A6822
:1028E000019B9A42EDD1FFF7B3FF05B05DF804FB01
:1028F00000B585B00190FFF7A3FF0B4B9B695A6BA6
:10290000019B13400393084B9B69074A9269516BE3
:10291000019AD2430A405A63FFF79AFF039B184675
:1029200005B05DF804FB00BFF80A0020AFF300809B
:1029300000B583B00190FFF783FF094B9B69084AFC
:102940009269516B019A0A435A63054B9B695B6B11
:102950000193FFF77DFF019B184603B05DF804FB70
:10296000F80A0020AFF30080AFF30080AFF30080DF
:1029700000B585B001900091019B1B6803931AE09C
:10298000039BDA68009B1A43039BDA60009B002BD1
:1029900006D0039BDA68039B1B691340002B07D00A
:1029A000039B5A68039B9B681046194600F040F849
:1029B000039B1B680393039A019B9A42E0D105B0E5
:1029C0005DF804FBAFF30080AFF30080AFF300804D
:1029D00000B585B00190FFF733FF019BDB680393DF
:1029E000019B0022DA60FFF733FF039B184605B016
:1029F0005DF804FBAFF30080AFF30080AFF300801D
:102A000000B583B001900091FFF71AFF019800997B
:102A100000F00EF8FEF7BCFAFFF71AFF03B05DF8FE
:102A200004FB00BFAFF30080AFF30080AFF3008082
:102A300000B583B001900091019B5A6B009B1A4333
:102A4000019B5A63019B93F820300A2B06D1019B0E
:102A50005A6B019B5B6A1340002B0DD1019B93F8CD
:102A600020300B2B0ED1019B5A6B019B5B6A1A40E5
:102A7000019B5B6A9A4205D1019B00225A62019830
:102A8000FEF76EF903B05DF804FB00BFAFF3008002
:102A900000B583B001900091FFF7D2FE0198009934
:102AA000FFF766FFFEF774FAFFF7D2FE03B05DF89A
:102AB00004FB00BFAFF30080AFF30080AFF30080F2
:102AC00084B00190019BDB680393019B0022DA60D4
:102AD000039B184604B07047AFF30080AFF300804B
:102AE00000B585B0019000910023039319E0009A8E
:102AF000039B22FA03F303F00103002B0ED0012203
:102B0000039B02FA03F3DB43009A13400093039BF9
:102B10009B00019A13441B6803989847039B013359
:102B20000393009B002BE2D105B05DF804FB00BFCE
:102B300000B585B00190154B9B690293FFF780FEAD
:102B4000029B5A6B019B13400393039B002B0AD1FA
:102B5000029B019A5A620A20FEF752F9029B5A6BB5
:102B6000019B13400393039B5B42039A134003931F
:102B7000029B5A6B039BDB431A40029B5A63FFF78D
:102B800067FE039B184605B05DF804FBF80A0020B9
:102B900000B585B00190134B9B690293FFF750FE7F
:102BA000029B5A6B019B13400393039B002B0AD19A
:102BB000029B019A5A620A20FEF722F9029B5A6B85
:102BC000019B13400393029B5A6B039BDB431A4008
:102BD000029B5A63FFF73CFE039B184605B05DF865
:102BE00004FB00BFF80A0020AFF30080AFF30080C1
:102BF00000B585B00190104B9B690393FFF720FE51
:102C0000039B5A6B019B1A40019B9A4205D0039B80
:102C1000019A5A620B20FEF7F3F8039B5A6B019B53
:102C2000DB431A40039B5A63FFF712FE019B1846D1
:102C300005B05DF804FB00BFF80A0020AFF3008088
:102C400000B585B0019000911C4B9B690293FFF782
:102C5000F7FD029B5A6B019B13400393039B002BD0
:102C600019D1009B002B03D1FFF7F2FD002321E0D7
:102C7000029B019A5A620A200099FEF729F903463D
:102C8000002B03DAFFF7E4FD002313E0029B5A6BED
:102C9000019B13400393039B5B42039A13400393EE
:102CA000029B5A6B039BDB431A40029B5A63FFF75C
:102CB000CFFD039B184605B05DF804FBF80A002021
:102CC00000B585B0019000911A4B9B690293FFF704
:102CD000B7FD029B5A6B019B13400393039B002B90
:102CE00019D1009B002B03D1FFF7B2FD00231CE09C
:102CF000029B019A5A620A200099FEF7E9F80346FE
:102D0000002B03DAFFF7A4FD00230EE0029B5A6BB1
:102D1000019B13400393029B5A6B039BDB431A40B6
:102D2000029B5A63FFF794FD039B184605B05DF8BC
:102D300004FB00BFF80A0020AFF30080AFF300806F
:102D400000B585B001900091174B9B690393FFF785
:102D500077FD039B5A6B019B1A40019B9A4214D04A
:102D6000009B002B03D1FFF773FD002317E0039BAB
:102D7000019A5A620B200099FEF7AAF80346002B2D
:102D800003DAFFF765FD002309E0039B5A6B019B03
:102D9000DB431A40039B5A63FFF75AFD019B184619
:102DA00005B05DF804FB00BFF80A00200000000039
:102DB00082B020230193019B83F3118802B07047F6
:102DC00082B000230193019B83F3118802B0704706
:102DD00082B001900091019B009A1A60009B5A6892
:102DE000019B5A60019B5B68019A1A60009B019AE3
:102DF0005A6002B0704700BFAFF30080AFF30080AD
:102E000084B00190019B1B680393039B1A68019B8C
:102E10001A60019B1B68019A5A60039B184604B014
:102E2000704700BFAFF30080AFF30080AFF30080C6
:102E300008B5FFF7BDFF08BDAFF30080AFF300801A
:102E400008B5FFF7BDFF08BDAFF30080AFF300800A
:102E500082B00190019BDA6A019B2C339A4214BF25
:102E600001230023DBB2184602B07047AFF30080A5
:102E700000B583B00190009101980099FEF760F8C9
:102E800003B05DF804FB00BFAFF30080AFF3008038
:102E900000B585B001900091114B9B690393FFF73A
:102EA000C7FF039B009A5A62019B2C330398194673
:102EB000FFF78EFF019B93F820300E2B02D1019873
:102EC000FDF74EFF0C20FDF79BFF039B5B6A009311
:102ED000FFF7B6FF009B184605B05DF804FB00BF86
:102EE000F80A0020AFF30080AFF30080AFF300805A
:102EF00000B583B0FFF79CFF0F4B9B691846FFF7A7
:102F0000A7FF034683F00103DBB2002B02D00E20A3
:102F1000FDF776FF084B9B692C331846FFF770FFCF
:102F20000190019B0D2283F82020FFF789FF019B70
:102F3000184603B05DF804FBF80A0020AFF30080E8
:102F400000B583B001900091FFF772FF01980099DE
:102F5000FFF78EFFFFF774FF03B05DF804FB00BFBF
:102F600082B020230193019B83F3118802B0704744
:102F700082B000230193019B83F3118802B0704754
:102F800008B5FFF7EDFF08BDAFF30080AFF3008099
:102F900008B5FFF7EDFF08BDAFF30080AFF3008089
:102FA00000B58DB0039002910192009303980299AD
:102FB000082200F0CDFB0B900B9B002B01D10023CE
:102FC0001FE0019B04930B9B05930B9A029B1344F8
:102FD0000693009B07930E9B08930F9B0993FFF7A3
:102FE000CFFF04AB1846FEF7CBF90A900A9B0122EB
:102FF00083F821200A980021FDF7A2FFFFF7C8FF00
:103000000A9B18460DB05DF804FB00BFAFF30080CB
:1030100000B58DB00390029101920093039800F0E7
:10302000B7FD0B900B9B002B01D1002323E0029BEB
:1030300004930B9B0593039B5B680B9A13440693C5
:10304000019B0793009B08930E9B0993FFF798FF42
:1030500004AB1846FEF794F90A900A9B022283F803
:1030600021200A9B039A1A640A980021FDF768FF41
:10307000FFF78EFF0A9B18460DB05DF804FB00BFFA
:1030800082B020230193019B83F3118802B0704723
:1030900082B000230193019B83F3118802B0704733
:1030A00082B00190019B019A1A60019B019A5A60BB
:1030B00002B07047AFF30080AFF30080AFF3008041
:1030C00008B5FFF7DDFF08BDAFF30080AFF3008068
:1030D00008B5FFF7DDFF08BDAFF30080AFF3008058
:1030E00000B583B001900198FFF7DAFF03B05DF8F7
:1030F00004FB00BFAFF30080AFF30080AFF30080AC
:1031000082B00190019B5B681A46019B1B68D31A31
:103110009B10184602B07047AFF30080AFF30080F9
:1031200082B00190019B1B69184602B0704700BF36
:1031300010B582B001900198FFF7E2FF04460198B4
:10314000FFF7EEFF0346E31A184602B010BD00BFBA
:1031500000B585B0039002910192039B029A1A6018
:10316000039B029ADA60039B029A9A60019B9B0080
:10317000029A1A44039B5A60039B00221A61039B24
:1031800000221A75039B18331846FFF7A9FF039B0B
:1031900020331846FFF7A4FF05B05DF804FB00BF1D
:1031A00000B583B00190FFF78BFF019800F008F89D
:1031B000FDF7EEFEFFF78CFF03B05DF804FB00BFE8
:1031C00000B583B00190019B1A68019B9A60019B36
:1031D0001A68019BDA60019B00221A61019B01229F
:1031E0001A75019B183318466FF00101FEF798FB22
:1031F000019B203318466FF00101FEF791FB03B0ED
:103200005DF804FBAFF30080AFF30080AFF3008004
:1032100000B587B0039002910192FFF751FF039828
:103220000299019A00F00CF80590FFF751FF059BF9
:10323000184607B05DF804FBAFF30080AFF30080E1
:1032400000B587B0039002910192039B1B7D002B78
:1032500002D06FF0010330E00398FFF769FF0346E7
:10326000002B1FDD039B9B68191D039A9160029A36
:103270001A60039B9A68039B5B689A4203D3039B83
:103280001A68039B9A60039B1B695A1C039B1A6173
:10329000039B203318460021FEF72AFBFDF778FE3A
:1032A00000230AE0039B183318460199FEF700FB40
:1032B0000590059B002BC8D0059B184607B05DF80C
:1032C00004FB00BFAFF30080AFF30080AFF30080DA
:1032D00000B583B001900091019B1B7D002B02D0B3
:1032E0006FF0010325E00198FFF722FF0346002B52
:1032F0001DDD019B9B68191D019A9160009A1A605F
:10330000019B9A68019B5B689A4203D3019B1A68F0
:10331000019B9A60019B1B695A1C019B1A61019BCE
:10332000203318460021FEF7E3FA002301E04FF0B6
:10333000FF33184603B05DF804FB00BFAFF3008015
:1033400000B587B0039002910192FFF7B9FE039890
:103350000299019A00F00CF80590FFF7B9FE059B61
:10336000184607B05DF804FBAFF30080AFF30080B0
:1033700000B587B0039002910192039B1B7D002B47
:1033800002D06FF0010333E00398FFF7D1FE03464C
:10339000002B22DD039BDB681A1F039BDA60039B73
:1033A000DA68039B1B689A4204D2039B5B681A1F6E
:1033B000039BDA60039BDB68029A1A60039B1B691C
:1033C0005A1C039B1A61039B203318460021FEF709
:1033D0008FFAFDF7DDFD00230AE0039B1833184642
:1033E0000199FEF765FA0590059B002BC5D0059B5A
:1033F000184607B05DF804FBAFF30080AFF3008020
:1034000000B583B001900091019B1B7D002B02D081
:103410006FF0010328E00198FFF78AFE0346002BB6
:1034200020DD019BDB681A1F019BDA60019BDA68D3
:10343000019B1B689A4204D2019B5B681A1F019B87
:10344000DA60019BDB68009A1A60019B1B695A1CB9
:10345000019B1A61019B203318460021FEF748FAB0
:10346000002301E04FF0FF33184603B05DF804FB82
:1034700000B587B0039002910192FFF721FE0398F7
:103480000299019A00F00CF80590FFF721FE059BC8
:10349000184607B05DF804FBAFF30080AFF300807F
:1034A00000B587B0039002910192039B1B7D002B16
:1034B00002D06FF0010331E00398FFF731FE0346BD
:1034C000002B20DD039BDB68191D039AD1601A686D
:1034D000029B1A60039BDA68039B5B689A4203D3E2
:1034E000039B1A68039BDA60039B1B695A1E039BAC
:1034F0001A61039B183318460021FEF7F9F9FDF70E
:1035000047FD00230AE0039B203318460199FEF78C
:10351000CFF90590059B002BC7D0059B184607B037
:103520005DF804FBAFF30080AFF30080AFF30080E1
:1035300000B583B001900091019B1B7D002B02D050
:103540006FF0010326E00198FFF7EAFD0346002B28
:103550001EDD019BDB68191D019AD1601A68009B72
:103560001A60019BDA68019B5B689A4203D3019B56
:103570001A68019BDA60019B1B695A1E019B1A6144
:10358000019B183318460021FEF7B2F9002301E031
:103590004FF0FF33184603B05DF804FB0000000055
:1035A00082B020230193019B83F3118802B07047FE
:1035B00082B000230193019B83F3118802B070470E
:1035C00008B5FFF7EDFF08BDAFF30080AFF3008053
:1035D00008B5FFF7EDFF08BDAFF30080AFF3008043
:1035E000034B044A1A60024B034A5A60704700BFFB
:1035F000700B00205013002000000220AFF3008069
:1036000086B0039002910192029A039B13445A1EC2
:10361000029B5B4213400393114B1A68019B1344B6
:103620001A46029B13445A1E029B5B4213400593A9
:10363000059A039B13440493094B5A68049B9A42CE
:1036400004D3074B1A68049B9A4201D9002303E074
:10365000034A049B1360059B184606B0704700BFE1
:10366000700B0020AFF30080AFF30080AFF3008059
:1036700000B587B0039002910192FFF7A1FF039874
:103680000299019AFFF7BCFF0590FFF7A1FF059B88
:10369000184607B05DF804FBAFF30080AFF300807D
:1036A000034B5B681A46024B1B68D31A18467047D7
:1036B000700B00200000000000000000000000006F
:1036C00008B5064B064A1A60044B00229A60034B69
:1036D0000022DA600348FEF74BFD08BDB808002061
:1036E00071360008C8080020AFF30080AFF30080F7
:1036F00000B587B0039002910192029B073323F03B
:1037000007030593029A059BD31A1A46019B13449B
:103710000193039B00221A60039B059A9A60039B06
:103720000022DA60059B00221A60019B083BDA0840
:10373000059B5A60039B10331846FEF719FD07B02E
:103740005DF804FBAFF30080AFF30080AFF30080BF
:1037500000B58DB0039002910192039B002B01D123
:10376000654B0393019B072B01D808230193029B10
:10377000073323F00703DB080993039B1033184634
:10378000FEF706FD039B08330B9389E00B9B1B6838
:103790000A930A9B08331A46019B13445A1E019B45
:1037A0005B421340083B08930A9B5B680133DB00D4
:1037B0000A9A1A44089B9A4270D90A9A089BD21A0C
:1037C0000A9B5B680133DB00083B1344DB101A469D
:1037D000099B9A4262D3089A0A9B9A422CD90A9A68
:1037E000089BD21A0A9B5B680133DB00083B134439
:1037F000DB100793089B0A9A08329B1ADB101A46C3
:103800000A9B5A60079A099B9A4212D9099B013375
:10381000DB00089A13440693079A099BD31A5A1E91
:10382000069B5A600A9B1A68069B1A600A9B069AB6
:103830001A60089B0A9323E00A9B5A68099B9A42E4
:1038400004D10A9B1A680B9B1A6019E0099B01338B
:10385000DB000A9A134405930A9B1A68059B1A60B9
:103860000A9A059BD21A0A9B5B680133DB00083B6E
:103870001344DB101A46059B5A600B9B059A1A608D
:103880000A9B029A5A600A9B039A1A60039B1033A0
:103890001846FEF725FD0A9B083328E00A9B0B9388
:1038A0000B9B1B68002B7FF471AF039B10331846F2
:1038B000FEF716FD039B1B68002B17D0039B1B68AC
:1038C000099A0132D20010460199082298470890BF
:1038D000089B002B0AD0089B083B0A930A9B039A7B
:1038E0001A600A9B029A5A60089B00E0002318465F
:1038F0000DB05DF804FB00BFB8080020AFF30080F6
:1039000000B587B00190019B083B0493049B1B68A2
:103910000393039B08330593049B5B68073323F0F1
:103920000703DA08049B5A60039B10331846FEF71E
:103930002FFC039B03F10802059B9A4203D0049AD3
:10394000059B9A423ED9059B1B68002B04D0059B22
:103950001A68049B9A4235D9059B1A68049B1A6021
:10396000059B049A1A60049B5B680133DB00049A90
:103970001A44049B1B689A420DD1049B5A68049B0D
:103980001B685B6813445A1C049B5A60049B1B68A9
:103990001A68049B1A60059B5B680133DB00059A7B
:1039A0001A44049B9A420CD1059B5A68049B5B689D
:1039B00013445A1C059B5A60049B1A68059B1A60A5
:1039C00004E003E0059B1B680593B2E7039B1033FB
:1039D0001846FEF785FC00BF07B05DF804FB00BF8A
:1039E00000B58BB0039002910192039B002B01D193
:1039F000204B0393039B10331846FEF7C9FB0023AB
:103A000007930023069300230893039B083309932D
:103A100013E0099B1B685B680593089B01330893BF
:103A2000079A059B13440793059A069B9A4201D96E
:103A3000059B0693099B1B680993099B1B68002B38
:103A4000E7D1029B002B03D0079BDA00029B1A6090
:103A5000019B002B03D0069BDA00019B1A60039B9D
:103A600010331846FEF73CFC089B18460BB05DF877
:103A700004FB00BFB80800200000000000000000A8
:103A800082B020230193019B83F3118802B0704719
:103A900082B000230193019B83F3118802B0704729
:103AA00008B5FFF7EDFF08BDAFF30080AFF300806E
:103AB00008B5FFF7EDFF08BDAFF30080AFF300805E
:103AC00000B583B0019000910198009900F080F852
:103AD00003B05DF804FB00BFAFF30080AFF30080DC
:103AE00000B583B0019000910198009900F000F9B1
:103AF00003B05DF804FB00BFAFF30080AFF30080BC
:103B000084B0039002910192039B00221A60039BF0
:103B1000029A5A60039B019A9A6004B0704700BFF2
:103B200000B585B00390029101920BE003980299D1
:103B3000FFF7C6FF039B5B68029A13440293019B45
:103B4000013B0193019B002BF0D105B05DF804FB14
:103B500000B585B00190019B1B680393039B002B6C
:103B600005D0019B1B681A68019B1A600BE0019B42
:103B70009B68002B07D0019B9B68019A52681046F6
:103B8000042198470390039B184605B05DF804FB99
:103B900000B585B00190FFF783FF0198FFF7D8FFCC
:103BA0000390FFF785FF039B184605B05DF804FB03
:103BB00084B001900091009B0393019B1A68039BC2
:103BC0001A60019B039A1A6004B07047AFF300803B
:103BD00000B583B001900091FFF762FF0198009952
:103BE000FFF7E6FFFFF764FF03B05DF804FB00BFDB
:103BF00000B583B001900091019B0C3318460099E9
:103C00000022FFF77DFF019B18460021FEF798F880
:103C100003B05DF804FB00BFAFF30080AFF300809A
:103C200000B585B00390029101920BE003980299D0
:103C3000FFF756FF039B1B69029A13440293019BF3
:103C4000013B0193019B002BF0D105B05DF804FB13
:103C500000B585B001900091019B18460099FEF7D0
:103C600007F90390039B002B01D0002305E0019B83
:103C70000C331846FFF76CFF0346184605B05DF895
:103C800004FB00BFAFF30080AFF30080AFF3008010
:103C900000B585B001900091FFF702FF01980099EF
:103CA000FFF7D6FF0390FFF703FF039B184605B00D
:103CB0005DF804FBAFF30080AFF30080AFF300804A
:103CC00000B583B001900091019B0C331846009918
:103CD000FFF76EFF019B1846FEF71AF903B05DF877
:103CE00004FB00BFAFF30080AFF30080AFF30080B0
:103CF00000B583B001900091FFF7D2FE01980099C2
:103D0000FFF7DEFFFDF744F9FFF7D2FE03B05DF8E1
:103D100004FB00BF000000000000000000000000E5
:103D200082B020230193019B83F3118802B0704776
:103D300082B000230193019B83F3118802B0704786
:103D400008B5FFF7EDFF08BDAFF30080AFF30080CB
:103D500008B5FFF7EDFF08BDAFF30080AFF30080BB
:103D600010B582B0EFF309831C4623460193019BF3
:103D700020330193019B0093009B83F30988FFF795
:103D8000E7FF02B010BD00BFAFF30080AFF30080CB
:103D900010B582B0FFF7D4FF134B5B6803F40063E8
:103DA000002B1DD0EFF309831C4623460193019B92
:103DB000203B0193019B4FF08072DA61019B0093DD
:103DC000009B83F30988FDF7F3F80346002B03D02B
:103DD000019B064A9A6105E0019B054A9A6101E050
:103DE000FFF7B6FF02B010BD00ED00E0D5020008FD
:103DF000D8020008000000000000000000000000E1
:103E0000704700BFAFF30080AFF30080AFF30080D6
:103E100008B5FFF7F5FF01F0CBFC064802F0B8F853
:103E200001F006F901F03CFB03F0CAFA00F030F8AB
:103E300008BD00BFB8DF000800000000000000005F
:103E400082B001904FF08042019B53634FF080435A
:103E500000221A614FF080430222DA6002B07047FC
:103E60004FF080430022DA60704700BFAFF300805C
:103E700082B001904FF08042019B536302B07047C3
:103E80004FF080435B6B1846704700BFAFF3008074
:103E900008B502F0D5FF08BDAFF30080AFF3008096
:103EA00000B583B001900198FFF7CAFF03B05DF839
:103EB00004FB00BFAFF30080AFF30080AFF30080DE
:103EC00008B5FFF7CDFF08BDAFF30080AFF300806A
:103ED00000B583B001900198FFF7CAFF03B05DF809
:103EE00004FB00BFAFF30080AFF30080AFF30080AE
:103EF00008B5FFF7C5FF0346184608BD00000000DF
:103F000082B020230193019B83F3118802B0704794
:103F100082B000230193019B83F3118802B07047A4
:103F20004FF080435B6A1846704700BFAFF30080D4
:103F300008B5FFF7F5FF0346184608BDAFF300804C
:103F400082B00190019B019A1A60019B019A5A600C
:103F500002B07047AFF30080AFF30080AFF3008092
:103F600008B5FFF7CDFF08BDAFF30080AFF30080C9
:103F700008B5FFF7CDFF08BDAFF30080AFF30080B9
:103F800008B5FFF7D5FF0346184608BDAFF300801C
:103F900000B583B001900198FFF7D2FF03B05DF840
:103FA00004FB00BFAFF30080AFF30080AFF30080ED
:103FB00008B5FFF7D5FF08BDAFF30080AFF3008071
:103FC00008B5FFF7D5FF08BDAFF30080AFF3008061
:103FD00008B5FFF7D5FF0346184608BDAFF30080CC
:103FE00000B583B001900198FFF7D2FF03B05DF8F0
:103FF00004FB00BFAFF30080AFF30080AFF300809D
:1040000000B583B00190009101980099FDF750FC34
:104010000346184603B05DF804FB00BFAFF3008011
:1040200000B583B00190009101980099FDF760FC04
:1040300003B05DF804FB00BFAFF30080AFF3008076
:1040400000B583B00190009101980099FDF768FCDC
:1040500003B05DF804FB00BFAFF30080AFF3008056
:1040600000B585B00390019200930B468DF80B309C
:10407000039B1846FFF7B4FF039B9DF80B201A72B1
:10408000039B0022DA60039B019A5A61039B019A09
:104090001A61009B0433069A02FB03F3019A1A4447
:1040A000039B9A61009B1A1D039BDA61039B069A8E
:1040B0001A62039B019A5A62039B00229A62039B35
:1040C0000022DA62039B079A1A63039B089A5A63D9
:1040D00005B05DF804FB00BFAFF30080AFF30080D4
:1040E00000B583B00190019B0022DA60019B5A6AFF
:1040F000019B5A61019B5A6A019B1A61019B002234
:104100009A62019B0022DA62019B18466FF001015E
:10411000FFF796FF03B05DF804FB00BFAFF300802C
:1041200082B00190019B1A69019B5B699A4205D19B
:10413000019BDB68002B01D0012300E0002303F08A
:104140000103DBB2002B01D0002302E0019B1B69BD
:104150000433184602B07047AFF30080AFF300801D
:1041600000B583B001900091019B1B69009A1A6011
:10417000019BDB685A1C019BDA60019B1A69019B59
:10418000DB691A44019B1A61019B1A69019B9B69B7
:104190009A4203D3019B5A6A019B1A61019B1846FC
:1041A0000021FFF73DFF03B05DF804FBAFF3008093
:1041B00000B585B001900091FFF7FAFE01980099D3
:1041C00000F00EF80390FFF7FBFE039B184605B0C6
:1041D0005DF804FBAFF30080AFF30080AFF3008025
:1041E00000B585B00190009111E0019B1B7A002B76
:1041F00002D06FF001031CE0019B18460099FFF705
:10420000FFFE0390039B002B01DA039B11E0019B4F
:10421000DB68002BE9D0019B5B691A1D019B9A6248
:10422000019B9A6A019B5B691B681A44019BDA62D5
:104230000023184605B05DF804FB00BFAFF3008013
:1042400000B583B00190FFF7B3FE019800F008F8C5
:10425000FFF7B6FE03B05DF804FB00BFAFF30080CC
:1042600000B583B00190019BDB685A1E019BDA60A8
:10427000019B5A69019BDB691A44019B5A61019BAE
:104280005A69019B9B699A4203D3019B5A6A019B1D
:104290005A61019B00229A62019B1B6B002B03D089
:1042A000019B1B6B0198984703B05DF804FB00BFAE
:1042B00000B585B001900091FFF77AFE019B9B6AE3
:1042C000002B0BD101980099FFF78AFF0390039B05
:1042D000002B03D0FFF774FE039B14E0019B9B6A45
:1042E0001B780393019B9B6A5A1C019B9A62019B5A
:1042F0009A6A019BDB6A9A4202D30198FFF7B0FFEA
:10430000FFF75EFE039B184605B05DF804FB00BF97
:1043100000B58BB0039002910192009300230993A2
:10432000FFF746FEFFF754FE0246009B1344069338
:10433000039B9B6A002B26D1009BB3F1FF3F02D069
:10434000009B002B05D103980099FFF749FF0790C8
:1043500012E0FFF73DFE0246069B9B1A0593059A65
:10436000009B9A4203D9FFF72BFE099B5CE0039860
:104370000599FFF735FF0790079B002B03D0FFF748
:104380001FFE099B50E0039BDB6A1A46039B9B6A56
:10439000D31A0893019A099BD21A089B9A4203D216
:1043A000019A099BD31A0893089B402B13D9039BAE
:1043B0009B6A02981946402209F00EFB029B40338B
:1043C0000293039B9B6A03F14002039B9A62099B41
:1043D0004033099314E0039B9B6A02981946089A9C
:1043E00009F0FAFA029A089B13440293039B9A6A13
:1043F000089B1A44039B9A62099A089B13440993E9
:10440000039B9A6A039BDB6A9A4202D30398FFF7E5
:1044100027FFFFF7D5FD099A019B9A4201D3099B1B
:1044200002E0FFF7C5FD83E718460BB05DF804FB1B
:1044300000B585B00390019200930B468DF80B30C8
:10444000039B1846FFF7CCFD039B9DF80B201A72C7
:10445000039B069ADA60039B019A5A61039B019AB7
:104460001A61009B0433069A02FB03F3019A1A4473
:10447000039B9A61009B1A1D039BDA61039B069ABA
:104480001A62039B019A5A62039B00229A62039B61
:104490000022DA62039B079A1A63039B089A5A6305
:1044A00005B05DF804FB00BFAFF30080AFF3008000
:1044B00000B583B00190019B1A6A019BDA60019BF1
:1044C0005A6A019B5A61019B5A6A019B1A61019BBE
:1044D00000229A62019B0022DA62019B18466FF06B
:1044E0000101FFF7ADFD03B05DF804FBAFF3008001
:1044F00082B001900091019B1A69019B5B699A420D
:1045000005D1019BDB68002B01D0012300E00023D3
:1045100003F00103DBB2002B01D0002307E0019B75
:104520005B691A68009B1A60019B5B69043318463B
:1045300002B07047AFF30080AFF30080AFF30080AC
:1045400000B583B00190019BDB685A1C019BDA60C7
:10455000019B5A69019BDB691A44019B5A61019BCB
:104560005A69019B9B699A4203D3019B5A6A019B3A
:104570005A61019B18460021FFF752FD03B05DF818
:1045800004FB00BFAFF30080AFF30080AFF3008007
:1045900000B585B001900091FFF70AFD01980099E0
:1045A00000F00EF80390FFF70BFD039B184605B0D3
:1045B0005DF804FBAFF30080AFF30080AFF3008041
:1045C00000B585B00190009111E0019B1B7A002B92
:1045D00002D06FF001031BE0019B18460099FFF722
:1045E0000FFD0390039B002B01DA039B10E0019B5E
:1045F000DB68002BE9D0019B1B691A1D019B9A62A5
:10460000019B1A69019BDB691A44019BDA62002352
:10461000184605B05DF804FBAFF30080AFF30080EF
:1046200000B583B001900091FFF7C2FC019800999A
:1046300000F006F8FFF7C4FC03B05DF804FB00BF10
:1046400000B583B001900091019B1B69009A1A602C
:10465000019BDB685A1E019BDA60019B1A69019B72
:10466000DB691A44019B1A61019B1A69019B9B69D2
:104670009A4203D3019B5A6A019B1A61019B002253
:104680009A62019B1B6B002B03D0019B1B6B019853
:10469000984703B05DF804FBAFF30080AFF30080F0
:1046A00000B587B003900B4601928DF80B30FFF7F1
:1046B0007FFC039B9B6A002B0BD103980199FFF7AA
:1046C0007FFF0590059B002B03D0FFF779FC059B2E
:1046D00019E0039B9B6A9DF80B201A70039B9B6A51
:1046E0005A1C039B9A62039B9A6A039BDB6A9A4259
:1046F00006D3039BDB69043B03981946FFF7A0FF31
:10470000FFF75EFC0023184607B05DF804FB00BF0E
:1047100000B58BB00390029101920093002309939E
:10472000FFF746FCFFF754FC0246009B1344069338
:10473000039B9B6A002B26D1009BB3F1FF3F02D065
:10474000009B002B05D103980099FFF739FF0790D4
:1047500012E0FFF73DFC0246069B9B1A0593059A63
:10476000009B9A4203D9FFF72BFC099B60E003985A
:104770000599FFF725FF0790079B002B03D0FFF754
:104780001FFC099B54E0039BDB6A1A46039B9B6A50
:10479000D31A0893019A099BD21A089B9A4203D212
:1047A000019A099BD31A0893089B402B13D9039BAA
:1047B0009B6A18460299402209F00EF9029B403389
:1047C0000293039B9B6A03F14002039B9A62099B3D
:1047D0004033099314E0039B9B6A18460299089A98
:1047E00009F0FAF8029A089B13440293039B9A6A11
:1047F000089B1A44039B9A62099A089B13440993E5
:10480000039B9A6A039BDB6A9A4206D3039BDB698C
:10481000043B03981946FFF713FFFFF7D1FB099AF2
:10482000019B9A4201D3099B02E0FFF7C1FB7FE79E
:1048300018460BB05DF804FBAFF30080AFF30080C7
:1048400084B00190019B1A69019B5B699A4205D172
:10485000019BDB68002B01D0012300E0002303F063
:104860000103DBB2002B2DD0019B9B6A002B29D0CA
:10487000019B9B6A1A46019B1B69D31A043B039355
:10488000039B002B1ED0019B1B69039A1A60019B9E
:10489000DB685A1E019BDA60019B1A69019BDB6988
:1048A0001A44019B1A61019B1A69019B9B699A42F8
:1048B00003D3019B5A6A019B1A61019B00229A62F1
:1048C000012300E00023184604B07047AFF30080D6
:1048D00000B585B00190FFF76BFB019B9B6A002B35
:1048E0000ED0019B9B6A1A46019B1B69D31A043B9D
:1048F0000393039B002B03D001980399FFF7A0FEBD
:10490000FFF75EFB05B05DF804FB00BF0000000090
:1049100082B020230193019B83F3118802B070477A
:1049200082B000230193019B83F3118802B070478A
:104930004FF080435B6A1846704700BFAFF30080BA
:1049400008B5FFF7F5FF0346184608BDAFF3008032
:1049500082B00190019B019A1A60019B019A5A60F2
:1049600002B07047AFF30080AFF30080AFF3008078
:1049700008B5FFF7CDFF08BDAFF30080AFF30080AF
:1049800008B5FFF7CDFF08BDAFF30080AFF300809F
:1049900008B5FFF7D5FF0346184608BDAFF3008002
:1049A00000B583B001900198FFF7D2FF03B05DF826
:1049B00004FB00BFAFF30080AFF30080AFF30080D3
:1049C00008B5FFF7D5FF08BDAFF30080AFF3008057
:1049D00008B5FFF7D5FF08BDAFF30080AFF3008047
:1049E00008B5FFF7D5FF0346184608BDAFF30080B2
:1049F00000B583B001900198FFF7D2FF03B05DF8D6
:104A000004FB00BFAFF30080AFF30080AFF3008082
:104A100000B583B00190009101980099FCF748FF20
:104A20000346184603B05DF804FB00BFAFF30080F7
:104A300000B583B00190009101980099FCF758FFF0
:104A400003B05DF804FB00BFAFF30080AFF300805C
:104A500000B583B00190009101980099FCF760FFC8
:104A600003B05DF804FB00BFAFF30080AFF300803C
:104A700000B585B00390029101920093039B184604
:104A8000FFF7B6FF039B00229A60039B029ADA604D
:104A9000039B029A9A61039B029A5A61029A019BB4
:104AA0001A44039B1A61039B009ADA61039B069ADE
:104AB0001A6205B05DF804FBAFF30080AFF300802D
:104AC00000B583B00190019BDA68019B9A61019B5C
:104AD000DA68019B5A61019B00229A60019B18468B
:104AE0006FF00101FFF7B4FF03B05DF804FB00BFF6
:104AF00000B583B001900B468DF80330019B5A69D5
:104B0000019B9B699A4205D1019B9B68002B01D0B8
:104B1000012300E0002303F00103DBB2002B02D0ED
:104B20004FF0FF331CE0019B9B685A1C019B9A606D
:104B3000019B5B69591C019A51619DF803201A7011
:104B4000019B5A69019B1B699A4203D3019BDA6856
:104B5000019B5A61019B18460021FFF769FF002362
:104B6000184603B05DF804FBAFF30080AFF300809C
:104B700000B585B001900091FFF722FF0CE0019B8A
:104B800018460099FFF744FF0390039B002B03DABC
:104B9000FFF71EFF039B26E0019B9B68002BEED0D6
:104BA000019B9B685A1E019B9A60019B9B69591C43
:104BB000019A91611B788DF80B30019B9A69019BDA
:104BC0001B699A4203D3019BDA68019B9A61019B9E
:104BD000DB69002B03D0019BDB6901989847FFF745
:104BE000F7FE9DF80B30184605B05DF804FB00BFDA
:104BF00000B58BB00390029101920093039BDB6997
:104C0000079300230993FFF7DBFEFFF7E9FE024657
:104C1000009B1344069328E0009BB3F1FF3F02D0B2
:104C2000009B002B06D1039B18460099FFF7F0FE6E
:104C3000089013E0FFF7D4FE0246069B9B1A0593EB
:104C4000059A009B9A4203D9FFF7C2FE099B3FE0F9
:104C5000039B18460599FFF7DBFE0890089B002B85
:104C600003D0FFF7B5FE099B32E0039B9B68002B46
:104C7000D2D0039B9B685A1E039B9A60029B5A1CCE
:104C80000292039A9269501C0399886112781A70F3
:104C9000039B9A69039B1B699A4203D3039BDA68BF
:104CA000039B9A61079B002B02D0079B03989847B0
:104CB000FFF78EFE099B01330993019B013B019392
:104CC000019B002B01D1099B02E0FFF779FEA2E7CF
:104CD00018460BB05DF804FBAFF30080AFF3008023
:104CE00000B585B00390029101920093039B184692
:104CF000FFF77EFE039B019A9A60039B029ADA609B
:104D0000039B029A9A61039B029A5A61029A019B41
:104D10001A44039B1A61039B009ADA61039B069A6B
:104D20001A6205B05DF804FBAFF30080AFF30080BA
:104D300000B583B00190019BDA68019B9A61019BE9
:104D4000DA68019B5A61019B1B691A46019BDB686B
:104D5000D31A1A46019B9A60019B18466FF0010115
:104D6000FFF776FE03B05DF804FB00BFAFF30080F1
:104D700000B587B003900B4601928DF80B30FFF71A
:104D80001FFE0CE0039B18460199FFF741FE0590BA
:104D9000059B002B03DAFFF71BFE059B25E0039B19
:104DA0009B68002BEED0039B9B685A1E039B9A6066
:104DB000039B5B69591C039A51619DF80B201A7083
:104DC000039B5A69039B1B699A4203D3039BDA68CE
:104DD000039B5A61039BDB69002B03D0039BDB69B8
:104DE00003989847FFF7F4FD0023184607B05DF8D5
:104DF00004FB00BFAFF30080AFF30080AFF300808F
:104E000000B585B00190019B5A69019B9B699A424C
:104E100005D1019B9B68002B01D0012300E00023FA
:104E200003F00103DBB2002B02D04FF0FF331DE093
:104E3000019B9B685A1C019B9A60019B9B69591CB2
:104E4000019A91611B788DF80F30019B9A69019B43
:104E50001B699A4203D3019BDA68019B9A61019B0B
:104E600018460021FFF7E4FD9DF80F30184605B005
:104E70005DF804FBAFF30080AFF30080AFF3008078
:104E800000B58BB00390029101920093039BDB6904
:104E9000079300230993FFF793FDFFF7A1FD024657
:104EA000009B1344069328E0009BB3F1FF3F02D020
:104EB000009B002B06D1039B18460099FFF7A8FD25
:104EC000089013E0FFF78CFD0246069B9B1A0593A2
:104ED000059A009B9A4203D9FFF77AFD099B3FE0B0
:104EE000039B18460599FFF793FD0890089B002B3C
:104EF00003D0FFF76DFD099B32E0039B9B68002BFD
:104F0000D2D0039B9B685A1E039B9A60039B5B69EC
:104F1000591C039A5161029A511C029112781A701D
:104F2000039B5A69039B1B699A4203D3039BDA686C
:104F3000039B5A61079B002B02D0079B039898475D
:104F4000FFF746FD099B01330993019B013B019348
:104F5000019B002B01D1099B02E0FFF731FDA2E785
:104F600018460BB05DF804FB0000000000000000D4
:104F700082B020230193019B83F3118802B0704714
:104F800082B000230193019B83F3118802B0704724
:104F900008B5FFF7EDFF08BDAFF30080AFF3008069
:104FA00008B5FFF7EDFF08BDAFF30080AFF3008059
:104FB00008B5FFF7EDFF08BDAFF30080AFF3008049
:104FC00008B5FFF7EDFF08BDAFF30080AFF3008039
:104FD00000B583B001900198FDF7CAF803B05DF801
:104FE00004FB00BFAFF30080AFF30080AFF300809D
:104FF00000B583B001900198FDF7CAF803B05DF8E1
:1050000004FB00BFAFF30080AFF30080AFF300807C
:1050100000B583B001900198FDF762F903B05DF827
:1050200004FB00BFAFF30080AFF30080AFF300805C
:1050300008B501F0E5FC08BDAFF30080AFF30080D8
:1050400000B583B00190019B01221A70019B0022E0
:105050005A60019B0C331846FFF7BAFF03B05DF8A6
:1050600004FB00BFAFF30080AFF30080AFF300801C
:1050700000B583B001900091FFF79AFF019B009A61
:105080005A60019801F0DCFC019B02221A70FFF7C4
:1050900097FF03B05DF804FBAFF30080AFF300802F
:1050A00000B583B00190FFF783FF019801F050FD38
:1050B000019B00225A60019B01221A70FFF780FFBA
:1050C00003B05DF804FB00BFAFF30080AFF30080D6
:1050D00082B00190019B9B68184602B0704700BFE8
:1050E00000B58BB00790059204930B46ADF81A30CB
:1050F000FFF75EFF079B00229A60079B03221A704E
:10510000BDF81A200C9B00930D9B01930E9B0293FC
:1051100007981146059A049B01F0BAFD0990099B76
:10512000B3F1FF3F03D1079B05221A7002E0079BF2
:1051300002221A70FFF744FF099B18460BB05DF876
:1051400004FB00BFAFF30080AFF30080AFF300803B
:1051500000B589B00590039202930B46ADF812306A
:10516000FFF726FF059B00229A60059B04221A7018
:10517000BDF812200A9B009305981146039A029BE2
:1051800001F016FD0790079BB3F1FF3F03D1059B8C
:1051900005221A7002E0059B02221A70FFF710FF29
:1051A000079B184609B05DF804FB00BFAFF3008011
:1051B00000B583B00190019B0C331846FFF718FF30
:1051C00003B05DF804FB00BFAFF30080AFF30080D5
:1051D00000B583B00190019B0C331846FFF718FF10
:1051E00003B05DF804FB00BF0000000000000000F9
:1051F00082B00190019B1B681B69019A926823FA97
:1052000002F2019B5B681340184602B0704700BF72
:1052100082B001900091019B1B68009AD143019AD2
:1052200052680A4001998968103102FA01F1019A25
:105230005068009A02400198806882400A439A614F
:1052400002B07047AFF30080AFF30080AFF300808F
:1052500000B583B001900091019B1968019B5B68C8
:10526000019A9268934008461946009A00F0F0FEB1
:1052700003B05DF804FB00BF000000000000000068
:1052800082B020230193019B83F3118802B0704701
:1052900082B000230193019B83F3118802B0704711
:1052A00008B5FFF7EDFF08BDAFF30080AFF3008056
:1052B00008B5FFF7EDFF08BDAFF30080AFF3008046
:1052C00082B00190019B019A1A6002B0704700BF42
:1052D00008B5FFF7E5FF08BDAFF30080AFF300802E
:1052E00008B5FFF7E5FF08BDAFF30080AFF300801E
:1052F00008B5FBF74DFE08BDAFF30080AFF30080AB
:1053000000B583B001900198FFF7DAFF03B05DF8B4
:1053100004FB00BFAFF30080AFF30080AFF3008069
:1053200000B583B00190009101980099FDF720FB32
:1053300003B05DF804FB00BFAFF30080AFF3008063
:1053400000B585B0039002910192039B303318465B
:105350000299019A4FF0FF33FFF792FD034618467A
:1053600005B05DF804FB00BFAFF30080AFF3008031
:1053700000B585B0039002910192039B0C3318464F
:105380000299019A4FF0FF33FFF732FC03461846AB
:1053900005B05DF804FB00BFAFF30080AFF3008001
:1053A00000B583B001900B468DF80330019B03F1EB
:1053B00030029DF80330104619464FF0FF32FFF7D8
:1053C000D7FC0346184603B05DF804FBAFF300803A
:1053D00000B583B00190019B0C3318464FF0FF31AC
:1053E000FFF7C6FB0346184603B05DF804FB00BF99
:1053F00000B585B003900B4601928DF80B30039BEE
:1054000003F130029DF80B3010461946019AFFF760
:10541000AFFC0346184605B05DF804FBAFF300800F
:1054200000B583B001900091019B0C3318460099A0
:10543000FFF79EFB0346184603B05DF804FB00BF70
:1054400000B585B00390029101920093039B303325
:1054500018460299019A009BFFF712FD0346184671
:1054600005B05DF804FB00BFAFF30080AFF3008030
:1054700000B585B00390029101920093039B0C3319
:1054800018460299019A009BFFF7B2FB03461846A3
:1054900005B05DF804FB00BFAFF30080AFF3008000
:1054A00008B501F0F5FE08BDAFF30080AFF3008052
:1054B00000B587B0059004910392059B144A1A60C9
:1054C000059B04331846FFF71BFF059B01221A7248
:1054D000059B03F10C01059B03F15402059B00930E
:1054E000084611461022049BFFF7C2FA059B03F100
:1054F0003001059B03F16402059B009308461146A9
:105500001022039BFFF7ECFB07B05DF804FB00BF24
:10551000C0DE0008AFF30080AFF30080AFF300807F
:1055200000B583B001900091FFF7D2FE0198009979
:1055300001F0CEFE019B02221A72FFF7D1FE03B0EA
:105540005DF804FBAFF30080AFF30080AFF30080A1
:1055500000B583B00190FFF7BBFE019801F0F0FEAB
:10556000019B01221A72019B30331846FFF7E0FBC2
:10557000019B0C331846FFF7A3FAFFF7B9FEFFF7BC
:10558000AFFE03B05DF804FBAFF30080AFF3008023
:1055900000B583B001900B468DF80330019B5B6929
:1055A000002B05D1019B043318460421FFF7B8FEF8
:1055B000019B03F10C029DF8033010461946FFF7DA
:1055C00097FA0346002B06DA019B043318464FF482
:1055D0008061FFF7A5FE03B05DF804FBAFF3008028
:1055E00000B585B00190019B30331846FFF708FCE9
:1055F0000390039B002B05DA019B04331846082116
:10560000FFF78EFE039B184605B05DF804FB00BF54
:1056100000B585B00190FFF75BFE019B9B6B002BF3
:105620000CBF012300238DF80F30FFF759FE9DF8C2
:105630000F30184605B05DF804FB00BFAFF30080E3
:1056400000B585B00190FFF743FE019B5B69002B1D
:105650000CBF012300238DF80F30FFF741FE9DF8AA
:105660000F30184605B05DF804FB00BF00000000D5
:1056700082B001900091124A009BDBB21B01D9B2AB
:10568000019B134403F540730A461A700C49019BB1
:105690005B09019A02F01F02012000FA02F2603356
:1056A00041F823200649019B5B09019A02F01F0281
:1056B000012000FA02F241F8232002B0704700BF37
:1056C00000E100E0AFF30080AFF30080AFF30080B3
:1056D00082B001900A49019B5B09019A02F01F0206
:1056E000012000FA02F2203341F82320044A019BF2
:1056F000134403F5407300221A7002B0704700BFD4
:1057000000E100E0AFF30080AFF30080AFF3008072
:1057100082B001900091064A009BDBB21B01D9B216
:10572000019B134418330A461A7002B0704700BF39
:1057300000ED00E0AFF30080AFF30080AFF3008036
:1057400082B001900649019B5B09019A02F01F0299
:10575000012000FA02F2603341F8232002B07047C2
:1057600000E100E000000000000000000000000078
:105770000D4A0D4B1B6843F4807313600B4B1B6F7A
:1057800003F44073B3F5007F06D0084B4FF480322A
:105790001A67064B00221A67034A034B5B6823F41F
:1057A00000735360704700BF007000400038024033
:1057B00008B5174B1B69164B4FF0FF321A61144B9B
:1057C00000221A61124B5B69114B4FF0FF325A6194
:1057D0000F4B00225A610E4A0D4B1B6A63F0805337
:1057E00013620B4B00221A62094B5B6A084B4FF0A5
:1057F000FF325A62064B00225A62054A044B1B6C68
:1058000043F080531364FFF7B3FF00F0B1FA08BD13
:1058100000380240AFF30080AFF30080AFF30080A8
:10582000474B4FF080521A64464B4FF440421A6087
:10583000434A434B1B6843F00103136000BF404BD6
:105840001B6803F00203002BF9D03D4A3C4B9B68D8
:1058500023F0030393603A4A394B9B68936000BF7F
:10586000374B9B6803F00C03002BF9D1344A344BBF
:105870001B6803F0F9031360314B00229A60304A31
:105880002F4B1B6843F48033136000BF2C4B1B6805
:1058900003F40033002BF9D0294A294B5B6F43F006
:1058A0000103536700BF264B5B6F03F00203002B1D
:1058B000F9D0234B244A5A60214A214B1B6843F0FC
:1058C0008073136000BF1F4B5B6803F48043002BA1
:1058D000F9D000BF1A4B1B6803F00073002BF9D0FE
:1058E000174B1A4A9A601A4B1B681A4A934209D1FD
:1058F000194B1B68194A934204D1194B40F2051207
:105900001A6003E0164B40F205721A600C4A0C4B09
:105910009B6843F00203936000BF094B9B6803F050
:105920000C03082BF9D1064A054B5B6C43F480430A
:105930005364034A024B5B6E43F4804353667047E3
:105940000038024000700040085440070094883836
:10595000002004E01164002000ED00E041C20F418E
:10596000003C0240000000000000000000000000B9
:1059700000B583B00B4B1B6803F03D030193094A4C
:10598000019B9360084B1B68002B06D0064B1B68DD
:10599000054A5268104601999847FEF7F9F903B095
:1059A0005DF804FB00600240DC080020AFF30080DB
:1059B00000B583B00C4B1B689B0903F03D030193BA
:1059C000094A019B9B019360084B9B68002B06D002
:1059D000064B9B68054AD268104601999847FEF726
:1059E000D7F903B05DF804FB00600240DC0800203A
:1059F00000B583B00C4B1B681B0C03F03D030193F7
:105A0000094A019B1B049360084B1B69002B06D0BD
:105A1000064B1B69054A5269104601999847FEF7E3
:105A2000B7F903B05DF804FB00600240DC08002019
:105A300000B583B00C4B1B689B0D03F03D03019335
:105A4000094A019B9B059360084B9B69002B06D07C
:105A5000064B9B69054AD269104601999847FEF7A3
:105A600097F903B05DF804FB00600240DC080020F9
:105A700000B583B00B4B5B6803F03D030193094A0B
:105A8000019BD360084B1B6A002B06D0064B1B6A98
:105A9000054A526A104601999847FEF779F903B012
:105AA0005DF804FB00600240DC080020AFF30080DA
:105AB00000B583B00C4B5B689B0903F03D03019379
:105AC000094A019B9B01D360084B9B6A002B06D0BF
:105AD000064B9B6A054AD26A104601999847FEF721
